:100000000C94B8020C94FF020C94FF020C94FF02B3
:100010000C94FF020C94FF020C94FF020C94FF025C
:100020000C94FF020C94FF020C94A4230C947824EB
:100030000C94DD1E0C94FF020C94FF020C94FF0242
:100040000C94FF020C94FF020C94FF020C94FF022C
:100050000C94FF020C94341F0C94FF020C94FF02CA
:100060000C94FF020C94FF020C94FF020C94FF020C
:100070000C94FF020C94FF020C94FF020C94FF02FC
:100080000C94FF020C94FF020C94FF020C94FF02EC
:100090000C94FF020C94FF020C94FF020C94FF02DC
:1000A0000C94FF020C94FF020C94FF0229003A000A
:1000B0003B003C003D003E003F004000410042004C
:1000C00043004400450000006800000035001E00A9
:1000D0001F0020002100220023002400250026000C
:1000E00027002D002E0031004C004A002B00140088
:1000F0001A0008001500170000001C0018000C0072
:10010000120013002F0030002A004B0039000400B9
:100110001600070009000A0000000B000D000E0089
:100120000F0033003400000028004E00E1001D00E5
:100130001B0006001900050000000500110010005A
:10014000360037003800E50052000000E0000000F3
:10015000E20000002C00E300000000002C00000082
:10016000E60000000151500051004F000100010065
:100170000100010001000100010001000100010077
:1001800001000100010000000100000001003A0030
:100190003B003C003D003E003F004000410042006B
:1001A00043004400450001000100A80001000100D7
:1001B0000100010001000100000001000100010038
:1001C00001000100010001000100A900010001007F
:1001D000C65CC75CC85CC95C0000CA5CCB5CC45C24
:1001E000C55C0100010000000100AA00010001003F
:1001F00001000100010001000000010001000100F8
:1002000001000100010001000100000001000000E8
:1002100001000000010001000000000001000000DA
:10022000C35C0000010001000100010000047F3FE9
:100230001F643214643214783C1E1E140A052223F3
:10024000252628292A2C2D2F3032333536383A3BB3
:100250003D3E4042434547494A4C4E505153555705
:10026000595A5C5E6062646668696B6D6F71737524
:1002700077797B7D7F81838587898A8C8E90929424
:1002800096989A9C9E9FA1A3A5A7A8AAACAEAFB131
:10029000B3B4B6B8B9BBBCBEBFC1C2C3C5C6C7C97B
:1002A000CACBCCCDCED0D1D2D2D3D4D5D6D7D7D835
:1002B000D9D9DADADBDBDBDCDCDCDCDCDDDDDDDD87
:1002C000DCDCDCDCDCDBDBDBDADAD9D9D8D7D7D68F
:1002D000D5D4D3D2D2D1D0CECDCCCBCAC9C7C6C546
:1002E000C3C2C1BFBEBCBBB9B8B6B4B3B1AFAEAC8C
:1002F000AAA8A7A5A3A19F9E9C9A98969492908E37
:100300008C8A89878583817F7D7B79777573716F0F
:100310006D6B6968666462605E5C5A5957555351EB
:10032000504E4C4A4947454342403E3D3B3A3836A1
:10033000353332302F2D2C2A292826252322FFAAB7
:100340007F5540000101010101010101010202028A
:100350000202020202020303030303030303040471
:10036000040404040405050505050606060606073B
:100370000707070708080808090909090A0A0A0BF4
:100380000B0B0C0C0C0D0D0D0E0E0E0F0F0F101095
:10039000111111121213131414151516161717181C
:1003A0001819191A1A1B1B1C1D1D1E1E1F20202187
:1003B0002222232424252626272829292A2B2C2DCE
:1003C0002D2E2F30313232333435363738393A3BEF
:1003D0003C3D3E3F404142434445464748494A4CE4
:1003E0004D4E4F50515354555658595A5B5D5E5FB0
:1003F000616264656668696B6C6D6F707273757746
:10040000787A7B7D7E8082838587888A8C8E8F91A7
:10041000939596989A9C9EA0A2A3A5A7A9ABADAFD1
:10042000B1B3B5B7BABCBEC0C2C4C6C9CBCDCFD1BB
:10043000D4D6D8DBDDDFE2E4E7E9EBEEF0F3F5F864
:10044000FAFDFF1E0372006F00790061006E00204C
:100450000066007200610063007400750072006540
:100460000000000C0372006F00790061006E000054
:10047000000403090409023B00020100A0FA090478
:1004800000000103010100092111010001224000C7
:100490000705810308000A090401000103000000A8
:1004A000092111010001226D000705820320000AC5
:1004B000120100020000000800F178AD0100010205
:1004C000000105010980A101850319012AB7001562
:1004D0000126B700950175108100C0050C0901A126
:1004E00001850419012AA002150126A002950175B3
:1004F000108100C005010906A1018506050719E064
:1005000029E71500250195087501810205071900E5
:1005100029EF1500250195F07501810205081901E3
:100520002905950575019102950175039101C00595
:10053000010906A101050719E029E7150025019524
:1005400008750181029501750881010507190029C7
:10055000FF150026FF0095067508810005081901A2
:100560002905950575019102950175039101C0005A
:1005700011241FBECFEFDAE0DEBFCDBF04B603FE0D
:1005800027C08091190390911A03A0911B03B09189
:100590001C038730904BA740B04BD1F41092190345
:1005A00010921A0310921B0310921C0314BE84B7FE
:1005B000877F84BF0FB6F894A8958091600088610A
:1005C00080936000109260000FBEE0E0F8E30995B0
:1005D00011E0A0E0B1E0E0E2FFE402C005900D927E
:1005E000A23CB107D9F723E0A2ECB1E001C01D9213
:1005F000A931B207E1F70E943E130C9427270C940F
:10060000000081E0089581E008950C9403030895AB
:100610000C9407031F93CF93DF9300D000D00F9269
:10062000CDB7DEB749835A836B833091C40189818A
:100630009A8131111DC06623B9F02223A9F00E94CE
:100640005709182F682F89819A810E9404096981AE
:100650007A81812F0F900F900F900F900F90DF9164
:10066000CF911F910C94B20F0E943009182FEFCF39
:100670000E94570969817A81EDCFFC01262F4081C4
:1006800051816281738184810C940A0381E0089511
:10069000CF93DF93EC0160E00E943D03BE01DF9148
:1006A000CF910C9408030E94BA110E94DA030C94B3
:1006B000DF110C94E21180E00E94DB030C942518FA
:1006C000089508950E94AD070E9461032FEF84E30F
:1006D0009CE0215080409040E1F700C000000C9465
:1006E000581F0F931F93CF93DF938C0161E00E94FB
:1006F0003D03EC01B8010E9405038823D9F1B8013C
:10070000CE010E94121D8823A9F1B801CE010E94DA
:100710009F1A882379F1B801CE010E947C1C88239E
:1007200049F1B801CE010E94A819882319F1F801F6
:100730008281882361F0CB35FDE5DF0721F170F47C
:10074000C115ECE5DE07A1F0CF3DDC45C9F0C801DD
:10075000DF91CF911F910F910C940103CC358DE562
:10076000D807A1F0CD35DD4591F70E94040EEFCFFB
:100770000E94620380E0DF91CF911F910F91089555
:100780000E94B80EF7CF0E940D0EE1CF0E94100E0E
:10079000DECF0C9460030E946E1D0E94DB030E945A
:1007A000F1180C94C90308950C94D30381E00895C3
:1007B0000C94D6030895CF93C82F0E94D4038C2F96
:1007C000CF910C94D803CF93DF93CDB7DEB72B979F
:1007D0000FB6F894DEBF0FBECDBF4F835887698731
:1007E0007A878B8761110E94520D1E821D8285E0DF
:1007F000FE013796DE01119601900D928A95E1F780
:100800008C819D81892B89F449815A816B817C81FE
:100810008D819E810E94730C2B960FB6F894DEBFDB
:100820000FBECDBFDF91CF91089589819A81892331
:100830008F3F51F3CE0101960E9446038111E4CF10
:10084000EBCFFC01808191810C949909CF93C82F43
:10085000882309F488C08238C1F40E946E1D81FD8E
:1008600082C089E30E940D0D0E94820D2FEF81EE60
:1008700094E0215080409040E1F700C0000089E3FF
:100880000E94140DCF910C94820D8338A1F40E9424
:100890006E1D80FD68C083E50E940D0D0E94820DD3
:1008A0002FEF81EE94E0215080409040E1F700C0AE
:1008B000000083E5E5CF8438A1F40E946E1D82FD1F
:1008C00052C087E40E940D0D0E94820D2FEF81EE31
:1008D00094E0215080409040E1F700C0000087E4A0
:1008E000CFCF8CEF8C0F813AB8F48C2F0E94451C2F
:1008F000811139C06C2F80910201909103010E94F7
:10090000D41D882329F08C2F0E94140D0E94820D83
:100910008C2F0E940D0DB6CF80E28C0F883048F4EA
:10092000C77081E001C0880FCA95EAF70E94350DB3
:10093000A9CFEBE5EC0FE33040F4F0E0EE5AFE4FC8
:10094000808190E0CF910C94941DC85AC73158F41F
:10095000EC2FF0E0EE0FFF1FEC5DFE4F80819181E8
:10096000CF910C94AA1DCF910895882309F44BC010
:10097000823871F40E946E1D81FF45C089E30E9498
:100980000D0D0E94820D89E30E94140D0C94820DBE
:10099000833859F40E946E1D80FF35C083E50E94A4
:1009A0000D0D0E94820D83E5EFCF843859F40E942B
:1009B0006E1D82FF28C087E40E940D0D0E94820DEB
:1009C00087E4E2CF9CEF980F913AF0F290E2980F13
:1009D000983050F4877091E001C0990F8A95EAF73A
:1009E000892F0E943B0DD2CF9BE5980F933020F4C6
:1009F00090E080E00C94941D885A873120F490E0B8
:100A000080E00C94AA1D08951F93CF93DF93182FB5
:100A1000EB010E942604209731F4812FDF91CF91C2
:100A20001F910C94B5048FE99FE00197F1F700C086
:100A300000002197F0CF70E060E0893311F460E5A9
:100A400070E00C940405882321F00E94350D0C946D
:100A5000820D0895882321F00E943B0D0C94820D95
:100A60000895BF92CF92DF92EF92FF920F931F9360
:100A7000CF93DF936C01D62FC72FFC011281F58035
:100A8000F2949FE0F9220E942B0DE82E8823B9F002
:100A9000E12E1123A1F08C2F807F803421F080E2A1
:100AA0008D0F8830B0F08091C00282FD12C082E0CC
:100AB0000E94D30D0E942B0D91E0E82EE926BC2E5A
:100AC000B2948FE0B822EB2DF0E0E75DF84D0C9486
:100AD0008226E12CF4CF0C2F0F70C07F11F002950D
:100AE000007F112399F0002359F080E28D0F8830A8
:100AF00010F0D11107C0802F0E94350D0E94820D89
:100B00008D2F41C0802F0E94450DF8CF8D2F0E9460
:100B1000B504002309F43FC080E28D0F883010F047
:100B2000D11104C0802F0E943B0D03C0802F0E9472
:100B30004B0D0E94820D2FC00C2F0F70C07FC03252
:100B400011F00295007FDD2381F0D13009F469C0F6
:100B5000112309F473C0FF2009F469C0F6018581EF
:100B600080FFCECF8F70858362C08091C00282FFEC
:100B700038C0112359F0002329F0802F0E94350D31
:100B80000E94820D80E00E94260405C080E00E9441
:100B9000B5040111C7CFEB2DE850FF0B349720F4BB
:100BA0000E946E1D0E94DB03EE2009F477C10E94B3
:100BB000270D80FD73C1F60112820E94210D0E9453
:100BC0006808C6010E946F070E94210DDF91CF9136
:100BD0001F910F91FF90EF90DF90CF90BF900C94FA
:100BE0008908112389F0F11006C00E94650D802B41
:100BF0000E942305D0CFF1E0FF12F7CF0E94650DD0
:100C0000802B0E946B0DC7CFF11006C00E94780D9B
:100C1000802F0E942A05BFCF21E0F21609F4BBCF36
:100C2000F5CF112331F035E03F1508F4B4CF802F14
:100C3000DFCF84E08F1508F4AECFEACFFF2041F379
:100C4000D93349F4FFEF27EE33E0F1502040304034
:100C5000E1F700C000008D2F0E94B5049CCF8C2FBF
:100C600086958695837069F0813009F094CF8D2F39
:100C70009C2F9370111102C090E080E00E94AA1D89
:100C80008ACF8D2F9C2F9370111102C090E080E0CD
:100C90000E94941D80CF8C2F837009F041C01111E8
:100CA0007ACF4D2F429546954770440F440F0D2F34
:100CB0000F7010E030E020E0042E04C0000F111F80
:100CC000221F331F0A94D2F760E070E0CB01D4FFFB
:100CD0000FC06FE070E080E090E004C0660F771F07
:100CE000881F991F4A95D2F76095709580959095C9
:100CF000C695C695C370602B712B822B932BC23087
:100D000049F058F4C13019F00E941A0844CF0E94EB
:100D1000080841CF0E942C083ECF0E9406083BCF16
:100D20008695112311F08C2F8170882309F433CF1D
:100D30004D2F429546954770440F440F0D2F0F706D
:100D400010E030E020E0042E04C0000F111F221F2D
:100D5000331F0A94D2F760E070E0CB01D4FF0FC0DC
:100D60006FE070E080E090E004C0660F771F881F9E
:100D7000991F4A95D2F76095709580959095C69584
:100D8000C695C370602B712B822B932BC23049F018
:100D900058F4C13019F00E94DF08FDCE0E94CD0842
:100DA000FACE0E94F108F7CE0E944208F4CECF702E
:100DB000112329F08C2F0E9468088D2F19CF8D2FB9
:100DC0000E942A058C2F0E948908E5CED23F51F15E
:100DD00060F4D03FB9F0D13F81F0112309F449C04C
:100DE000F1108ECE8C2F8F7121C0D33F11F1D43FE3
:100DF000A1F78091C00282FF26C08C2F8F71112332
:100E000011F314C0112349F084E08F1508F4C3CE08
:100E10008C2F8F710E94AC08BECE95E09F1508F410
:100E2000BACEF6CF8C2F8F711111CDCF0E946808EA
:100E3000B2CE112329F08C2F8F710E945308ABCEB4
:100E40000E944E08A8CE112349F0CF718C2F0E942A
:100E5000680863E08C2F0E94B80D9DCE81E00E944F
:100E6000D30DE1E0EF1508F096CE82E00E94D30D9D
:100E700092CEF110E5CE8C2F8F71A5CF4C2F4F70F5
:100E80006D2FC6010E94AE0F0E94C70984CE4C2F61
:100E90004F706D2FC6010E94B10F7DCEDF91CF91B3
:100EA0001F910F91FF90EF90DF90CF90BF9008952A
:100EB0000F931F93CF93DF93EC01688179818A812F
:100EC0000E94A3098C010E9403090E940508B80131
:100ED000CE01DF91CF911F910F910C943105CF93EB
:100EE000DF93EC018B819C81892B29F0888199818A
:100EF00089238F3F59F4DF91CF910895CE010E944D
:100F00005807CE01DF91CF910C944803CE010E9487
:100F100071038111F3CF0E942B0D882361F38A8125
:100F2000882349F38091C00282FDE5CF82E0DF9102
:100F3000CF910C94D30D90E080E00E94941D90E03E
:100F400080E00E94AA1D0E94520D0E94620D0C9426
:100F5000820D0E941B0D0C949B070E94420D0C9465
:100F6000A907E92FE295EF70E250EE3070F4F0E05F
:100F7000E75CF84D0C948226803F19F020F4883EFF
:100F800020F481E00895843FE1F380E00895883EF5
:100F9000C0F3813FD1F7F5CF93FB882780F90895FF
:100FA000FC01808191810E9499090C94B107CF9333
:100FB000DF9300D000D00F92CDB7DEB70F900F9027
:100FC0000F900F900F90DF91CF910895CF93DF9303
:100FD00000D000D000D0CDB7DEB726960FB6F8947B
:100FE000DEBF0FBECDBFDF91CF91089508950C9461
:100FF000F6070E94F707609305027093060280933C
:101000000702909308020C949B0708950C94F9072B
:101010000F931F9300910502109106022091070281
:1010200030910802602B712B822B932B1F910F9113
:101030000C94F9070F931F9300910502109106027B
:1010400020910702309108026023712382239323A9
:101050001F910F910C94F9070F931F9300910502B4
:101060001091060220910702309108026027712733
:10107000822793271F910F910C94F9070C94F60780
:101080000C943E080E944008609301027093020293
:1010900080930302909304020C949B0760E070E03D
:1010A000CB010C9442080F931F9341E050E060E0A5
:1010B00070E08A019B0104C0000F111F221F331F23
:1010C0008A95D2F7C901B8011F910F910C9442087B
:1010D0000F931F9341E050E060E070E004C0440FC4
:1010E000551F661F771F8A95D2F780910102909154
:1010F0000202A0910302B09104028A019B01082B15
:10110000192B2A2B3B2BC901B8011F910F910C946D
:1011100042080F931F9341E050E060E070E004C08C
:10112000440F551F661F771F8A95D2F7CB01BA016E
:101130006095709580959095009101021091020242
:1011400020910302309104026023712382239323B0
:101150001F910F910C9442080F931F9341E050E0B0
:1011600060E070E004C0440F551F661F771F8A952A
:10117000D2F78091010290910202A0910302B091F6
:1011800004028A019B01082719272A273B27C90146
:10119000B8011F910F910C9442080F931F93009177
:1011A0000102109102022091030230910402602B8F
:1011B000712B822B932B1F910F910C9442080F934C
:1011C0001F930091010210910202209103023091BD
:1011D000040260237123822393231F910F910C94A7
:1011E00042080F931F930091010210910202209177
:1011F00003023091040260277127822793271F91F1
:101200000F910C94420808959295907F890F982F22
:10121000977041E001C0440F9A95EAF7869586954C
:10122000869595E0899FF0011124EB53FE4F30E045
:1012300020E070E05191DF011197CB01022E02C036
:10124000969587950A94E2F7817081958527842386
:1012500085278C932F5F3F4F2530310559F708952F
:101260009295907F890F982F977086958695869591
:1012700025E0829FF0011124EB53FE4F50E040E047
:1012800080E0219130E0092E02C0369527950A941E
:10129000E2F721703327042E01C0220F0A94EAF7E7
:1012A000822B4F5F5F4F4530510559F70895BF922C
:1012B000CF92DF92EF92FF920F931F93CF93DF9322
:1012C0008C01C0900102D0900202E0900302F090E5
:1012D00004028091050290910602A0910702B0914C
:1012E0000802C82AD92AEA2AFB2ACFE1D0E0BC2E7C
:1012F000D701C6010C2E04C0B695A7959795879582
:101300000A94D2F780FD0EC0219788F7B12C8B2D5F
:10131000DF91CF911F910F91FF90EF90DF90CF90D1
:10132000BF900895B8018C2F0E94D910019761F3E6
:10133000EECFCF93DF93EC010E945709BE01DF91FE
:10134000CF910C94D9101F93CF93DF93EB01909121
:10135000C401992331F0CB01DF91CF911F910C94FF
:101360009909882379F0CB010E945709182F682F1B
:10137000CE010E940409BE01812FDF91CF911F9100
:101380000C94D910CB010E943009182FF4CFEF92A2
:10139000FF920F931F93CF93DF938C01892B81F0E2
:1013A000F12CEE24E394E8012196F801849184372E
:1013B00070F4843008F05FC08130B1F08230A1F168
:1013C000DF91CF911F910F91FF90EF900895853796
:1013D00009F44CC008F43DC09CE7980F903780F7A3
:1013E0008F770E94B50449C00E5F1F4FFE018491A4
:1013F00090E2980F983060F48770FE2D01C0FF0FC7
:101400008A95EAF78F2F0E94550D0E94820D02C027
:101410000E9426048F2D815030F2EFE9FFE03197D2
:10142000F1F700C00000F7CF0E5F1F4FFE0184915F
:1014300090E2980F983050F48770FE2D01C0FF0F96
:101440008A95EAF78F2F0E945B0DDFCF0E94B504CB
:10145000E1CF0E5F1F4FFE01C491C150D8F28FE95A
:101460009FE00197F1F700C00000F7CF0E5F1F4F1C
:10147000FE01F490CFCF0E9426048E01CBCF1F93A4
:10148000CF93DF93C091090216E080910A028C137A
:1014900004C0DF91CF911F910895D0E01C9FF0010F
:1014A0001D9FF00D1124E55FFD4F40815181628148
:1014B0007381848195810E94E6072196C770E5CFEC
:1014C00040913B0250913C0260913D0270913E027E
:1014D00080913F02909140020C94E607FF920F9397
:1014E0001F93CF93DF9380914002807FD1F480914E
:1014F0003D028823B1F08091090210910A026091A7
:101500003B0270913C02A0913E02B0913F02062F37
:101510000723C0910001D091010196E0F92E181324
:1015200006C0DF91CF911F910F91FF90089590E039
:10153000109711F00F3F19F401968770F0CFF89EC5
:101540009001F99E300D1124F901E55FFD4F4181B5
:101550004713F2CF40814613EFCF42814111ECCFC8
:10156000438154814A1B5B0B4C175D0728F7809120
:1015700040028F70806180934002F901E05FFD4F6F
:1015800080818F70806180838BE392E00E946F077F
:10159000DF91CF911F910F91FF900C943F0AAF9272
:1015A000BF92CF92DF92EF92FF920F931F93CF9350
:1015B000DF93CDB7DEB761970FB6F894DEBF0FBEED
:1015C000CDBF8C0185E0F801DE011D9601900D92E2
:1015D0008A95E1F7F801E2808BE3C82E82E0D82EED
:1015E00060913E0270913F026115710509F45FC17F
:1015F00090913B0220913C02892F82238F3F09F476
:1016000056C140815181A380B480F0903D02F50124
:10161000E61BF70BBF01E0910001F0910101FF20F3
:1016200009F4F6C080914002382F307F6E177F0793
:1016300008F0AFC0311179C0FE2C251323C09413DC
:1016400021C0E1101FC08F708061809340020E9412
:10165000600AC6010E946F0780914002F8018583ED
:101660008F2D61960FB6F894DEBF0FBECDBFDF9110
:10167000CF911F910F91FF90EF90DF90CF90BF908F
:10168000AF900895AB2829F0842F85238F3F09F070
:1016900027C180E0F82FF170DF2E80FF3CC08091E1
:1016A000090220910A0236E0821315C04D875E8739
:1016B0008D859E850E949909292F22952F702230B1
:1016C000F0F0243018F59F70F1F0F8019581907FCB
:1016D000D1F4D12C1EC090E0389FF001399FF00D5D
:1016E0001124E55FFD4F6181651306C060816413BD
:1016F00003C062816E110FC001968770D5CF9F70B5
:1017000011F0882331F3805E883018F3C8010E94FD
:101710006F07FD2CA5CFEE2009F4A2CF80914002E7
:10172000816080934002F12C9BCF251306C0941357
:1017300004C0F801EE2009F487C0C8010E94D00758
:10174000882319F1EE2009F180914002803270F077
:1017500020913B0230913C0238872F831986BB864B
:10176000AA868C87CE0107960E946F0786E0F80153
:10177000ABE3B2E001900D928A95E1F70E946E0A08
:101780000E94600AFF24F3946BCFC8010E946F0788
:10179000F9CF311113C07A2DB98AA88A6E2D8989A3
:1017A0000E94D7078BE392E00E946F0786E0F60164
:1017B00011928A95E9F70E94600AB5CF25130FC0F0
:1017C00094130DC0E1100BC0F8018583C8010E947D
:1017D0006F0786E0F60111928A95E9F741CFC801BB
:1017E0000E94D007882389F2EE2079F2809140028E
:1017F000803208F4BBCF20913B0230913C023A8307
:1018000029831B82BD82AC828E83CE010196ACCF30
:101810006E177F0708F03EC0FE2CEE2009F4B5CF0E
:1018200025132AC0941328C08091400280FD1BC05C
:10183000982F907FC1F0F8018583903F31F0982F69
:10184000907F905F8F70892B8583C8010E946F07FE
:1018500086E0F801ABE3B2E001900D928A95E1F7E2
:101860000E94600AFDCE86E0F801ABE3B2E0019091
:101870000D928A95E1F7F4CEC8010E94D00781113C
:1018800075CF80914002816080934002C8010E9420
:101890006F07E6CE7A2DB98AA88A6E2D89890E94B3
:1018A000D70786E0F60111928A95E9F7D9CFEE20A5
:1018B00009F46BCFC8010E94D007F82E882309F4E1
:1018C00064CF86E0F801ABE3B2E001900D928A9517
:1018D000E1F78BE392E00E9421040E946E0AC0CFE0
:1018E00081E08E25D7CE1F93CF93DF93CDB7DEB7A0
:1018F0002C970FB6F894DEBF0FBECDBF4F8358872D
:1019000069877A878B879C87CE0107960E94CF0ACA
:10191000882369F08A859B85892B39F04F8158850A
:10192000842F85238F3F09F071C016E05FC086E0E9
:10193000FE013796DE01119601900D928A95E1F72E
:101940008A859B85892B89F38F81988589238F3F91
:1019500061F320910A0230E0C9010196877099274E
:10196000409109024817190671F40E94AD071092C0
:101970000A021092090286E0EBE3F2E0DF011D9219
:101980008A95E9F7D2CF96E0929FD001939FB00D50
:101990001124A55FBD4FFE01319601900D929A95DD
:1019A000E1F780930A020E943F0ABFCF819FC001E6
:1019B0001124855F9D4F0E94CF0A8823E9F0E091B2
:1019C00009021E9FF0011124E55FFD4F4081518106
:1019D00062817381848195810E94E607809109026A
:1019E00090E00196877099278093090280910902FF
:1019F00090910A028913DACF2C960FB6F894DEBFC5
:101A00000FBECDBFDF91CF911F91089569857A8573
:101A10008B859C850E94E60788CF682F8091020104
:101A2000909103010C94541E682F809102019091B3
:101A300003010C945F1E80910201909103010C94AC
:101A40006A1E8091410285958595859508958091BE
:101A500041028770089590914102977081E009F4E6
:101A600080E0089580916502089590916502892B28
:101A700080936502089580959091650298239093D4
:101A80006502089510926502089590916402892B71
:101A900080936402089580959091640298239093B6
:101AA0006402089510926402089590916302892B54
:101AB0008093630208958095909163029823909398
:101AC000630208951092630208958091420208957E
:101AD00008950C94680D9091C00292FD08C09091F9
:101AE0004202981721F0809342020C94690D0895E8
:101AF00080914202882329F01092420280E00C94E7
:101B0000690D0895E0910201F09103018091650251
:101B10008083E0910201F091030180819091640241
:101B2000892B8083E0910201F091030180819091E3
:101B30006302892B808390914202992381F0E09186
:101B40000201F09103018081892B80838091020141
:101B5000909103010E94C01D81110E94780D809117
:101B60000201909103010C947A1D08950C94B50D17
:101B70009091C00292FD10C098E0899F90011124BD
:101B8000622B609341020E94680880914102859512
:101B9000859585950C94B60D0C94680810924102B9
:101BA00080E00C94B60D909141028095892380933A
:101BB0004102282F277091F4282F082E000C330B98
:101BC0009217130659F09091C00292FD07C08595B7
:101BD000859585950E9489080C94CE0D0895909165
:101BE000C00292FB222720F9281769F080FB92F9A6
:101BF0009093C0028091BF029091C0020E94340E67
:101C000082E00C94D30D08958091C00282FB882756
:101C100080F991E089270C94EF0D81E00C94EF0D91
:101C200080E00C94EF0D90E080E00E94ED2621E032
:101C3000893E9E4F09F020E0822F089582E090E0D7
:101C40000C94DF2683E090E00C94DF26CF9384E0B1
:101C500090E00E94DF26C82F82E290E00E94DF26FB
:101C6000982F8C2FCF910895CF93C92F682F84E0A0
:101C700090E00E94F3266C2F82E290E0CF910C94CA
:101C8000F326AB01BC018FE090E00C940527AB017B
:101C9000BC0183E190E00C94052760E070E0CB018B
:101CA0000C94470E60E070E0CB010E94410E0C9452
:101CB0004D0E69EE7EEF90E080E00E94112760E01B
:101CC00082E090E00E94F32660E083E090E00E94D2
:101CD000F32610920502109206021092070210924B
:101CE000080260E084E090E00E94F32660E082E277
:101CF00090E00E94F32660E085E090E00E94F326E9
:101D000060E086E090E00E94F3266FEF87E090E0CD
:101D10000E94F32640E050E0BA0188E090E00E9483
:101D2000052760E08DE090E00E94F32640E050E05F
:101D3000BA0188E190E00E94052760E087E190E029
:101D40000E94F32640E050E0BA018CE190E00E944E
:101D5000052770E060E080E290E00E94112740E0FB
:101D600050E0BA0188E190E00E9405270C94520EE1
:101D70000C94590E682F8EE090E00C94F3260E948C
:101D8000191F609377027093780280937902909381
:101D90007A02609373027093740280937502909339
:101DA0007602089585B7806885BF85B7806885BF4E
:101DB0000895089508950C94D90E08950C94DD0E9D
:101DC0000E94D20E87EB91E10E94641D0E94DA0E00
:101DD0000C94DB0E81E008950C94EA0E08950895AA
:101DE0000E94EE0E0C94EF0E0E94041F0E949812A7
:101DF0000E94B6180C94DE0E8F929F92AF92BF9203
:101E0000CF92DF92EF92FF920F931F93CF93DF93C6
:101E1000CDB7DEB72A970FB6F894DEBF0FBECDBFA1
:101E20000E94AD1281110E94BF0E57E6852E52E02E
:101E3000952E10E000E0A02E802F0E94E4116C018E
:101E4000F401E190F1904F01E816F90609F45CC045
:101E500080917B0281FD0E94ED11C7018C259D259B
:101E6000B12CEE24E394F12C9C012E213F21232B55
:101E700009F444C00E94EC0E8823A9F0BE82AF8210
:101E8000CE20DF2081E0CD2809F480E088870E9401
:101E90000D1F8160782F9A8789874E815F816885C1
:101EA0008A850E94E303000F111FF801E959FD4FD5
:101EB00080819181E826F926F182E0820E94FA1859
:101EC0000E946E1D909166028917A9F10E946E1DF5
:101ED000809366022A960FB6F894DEBF0FBECDBF80
:101EE000DF91CF911F910F91FF90EF90DF90CF90F6
:101EF000BF90AF909F908F900C94DB03B394EE0C47
:101F0000FF1CF0E1BF12B0CF0F5F1F4F063011056D
:101F100009F091CF8FEF89838A831B820E940D1F66
:101F20008160782F9D838C8349815A816B818D815B
:101F30000E94E303C3CF2A960FB6F894DEBF0FBE0C
:101F4000CDBFDF91CF911F910F91FF90EF90DF9068
:101F5000CF90BF90AF909F908F90089590E080E0D9
:101F600008950895E72FF0E096E0899FE00DF11DB8
:101F7000112484E0EE0FFF1F8A95E1F7E60FF11DB3
:101F8000EE0FFF1FE455FF4F859194910895FC01DA
:101F9000EE0FFF1FE45DFD4F859194910895CF935F
:101FA000DF930E94DD10EC01811520E5920708F017
:101FB00041C0811530E4930708F0B4C0803E91051C
:101FC00018F5803C910508F09DC0883A910570F4A1
:101FD000853A910508F08EC081309105F9F000979F
:101FE000E9F00497D8F4D0E0C0E018C08F3B910529
:101FF000D0F7C85AD0E0CC0FDD1FCB5ADE4F099086
:10200000D881C02DD4640AC08115904258F4C115FE
:1020100081E0D80718F4C83ED10528F7CE01DF913A
:10202000CF910895C11590E3D90708F071C0CE0192
:102030009F706AC0811525E5920758F5811534E532
:10204000930708F09EC0811542E5940750F4C1152E
:1020500081E5D80708F469C0DC2FCC27C16FD06AAE
:10206000DDCF982F969596959E0123703327C11545
:10207000D34508F077C0C1E0D0E002C0CC0FDD1F2F
:102080002A95E2F720E2929FC0011124C82BD92B98
:1020900067C0C11589E5D807A8F4C11598E5D90727
:1020A00008F074C0C11526E5D20708F09CCF8C2F2C
:1020B0000E947411C82FD0E0DC2FCC27CC27DF7111
:1020C000D062ACCFC1153AE5D30708F464C0CE01A5
:1020D00090568115904208F086CF8D2F8F710E9407
:1020E000741190E0982F882788279F719C012C2BD2
:1020F000E901E6CFC55AD0E0CD57DE4FC881D0E028
:10210000D0648CCF805C91090E94C70FEC0186CF10
:10211000CE019927D3FF03C0EC01D86C7FCFEC012F
:10212000D06C7CCFDF70D06A79CFCE01E4E0969599
:102130008795EA95E1F783702C2F269526952370D5
:1021400090E2299F90011124382B8C2F8370C1E0DD
:10215000D0E002C0CC0FDD1F8A95E2F7C22BD32B53
:10216000DC685CCFC1E0D0E002C0CC0FDD1F2A9557
:10217000E2F730E2939FC0011124C82BD92BDA6813
:102180004DCFD82FCC27C46FD06A48CFDC2FCC27B7
:10219000C06FD06A43CF8C2F8F700E94741134E0CF
:1021A000D695C7953A95E1F7CF709C2FEC01D06991
:1021B00035CF0E94B20F0C94CF0F82389105B1F148
:1021C000B0F48133910509F475C048F48932910562
:1021D00009F469C08A32910509F473C00895853302
:1021E000910509F459C08933910501F10895833EA1
:1021F0009105A9F138F4803E9105F9F0823E9105F0
:1022000049F10895863E9105A9F1873E9105C9F1EE
:10221000843E910519F52091C00221FF1FC08091D5
:10222000BF0284FD14C087EE90E008952091BF02A4
:102230002370A1F080EE90E008952091BF0220FD70
:1022400047C03091C00230FF09C024FF44C090E075
:1022500080E004C02091BF0222FDF7CF08952091B5
:10226000BF0222FD3BC03091C00230FDE3CF24FF0E
:10227000F5CFEDCF2091BF0223FFF0CF24FDE7CFB4
:10228000D2CF2091BF0223FD2CC03091C00231FF7C
:10229000EECF84EE90E008952091BF0225FFDECFBF
:1022A00089E290E008952091BF0225FFD7CF85E312
:1022B00090E008952091BF0226FFD0CF8AE290E0FF
:1022C00008952091BF0226FFC9CF81E390E00895D1
:1022D00089E390E0089583EE90E0089582EE90E027
:1022E000089586EE90E008959091BF0292FF06C097
:1022F000282F28712830F9F4877F846093FF06C067
:10230000282F28712831F1F4877E84612091C00242
:1023100020FF06C0382F38713830D9F4877F8160AC
:1023200021FF06C0282F28712831D1F4877E8161D2
:1023300094FD877E0895282F24712430F9F68B7F31
:102340008860DCCF282F2471243101F78B7E8861CF
:10235000DDCF382F3171313019F78E7F8860E0CFB3
:10236000282F2171213121F78E7E8861E1CF80E015
:10237000089508950E94130E811102C00E94B80EA4
:102380000E941E0E80937B020E94260E9093C00234
:102390008093BF020E94B9110E94220E682F70E044
:1023A00090E080E00E9406086091010270910202B4
:1023B00080910302909104020C94400808950C94BB
:1023C000DE1108950C94E111E82FF0E0EE0FFF1FED
:1023D000E353FD4F808191810895089580EA8A95A5
:1023E000F1F7089500C008950C94EE11F894E82FC9
:1023F000E295EF70F0E031A1282F2F7081E090E09E
:1024000001C0880F2A95EAF7982F9095932391A3FE
:1024100092A1892B82A378940895CF93DF93C6E984
:10242000D1E089918F3F11F00E94F61181E0CC3903
:10243000D807B9F7C6E8D1E089918F3F11F00E9423
:10244000F61181E0C639D807B9F7DF91CF91089529
:10245000AF92BF92DF92EF92FF920F931F93CF93B1
:10246000DF938C01D62EC62FD0E0CE018A569E4F28
:102470007C01FC0120812F3F09F44DC0F894E22F2C
:10248000E295EF70F0E031A12F7081E090E001C0A3
:10249000880F2A95EAF7932F982B91A392A1809504
:1024A000892382A378940E94F211E6E8F1E046E9DC
:1024B00051E021E030E0B12CA12C61916F3FA9F1F6
:1024C000A62FA295AF70B0E090968C9190E06F70BF
:1024D00002C0959587956A95E2F780FD26C0C901EF
:1024E000A82AB92A220F331F4E175F0731F7F701C9
:1024F00080818F3F11F00E94F61161E0A114B104B8
:1025000009F460E08D2D0E94F411CC0FDD1FC00F87
:10251000D11FB982A882DF91CF911F910F91FF90B7
:10252000EF90DF90BF90AF90089590E080E0D8CF1B
:102530000E940D128CE0EDECF2E0DF01982F1D926D
:102540009A95E9F7E1ECF2E0DF011D928A95E9F74F
:1025500086E00E94F8120C945303FF920F931F938E
:10256000CF93DF93CDB7DEB72C970FB6F894DEBFCD
:102570000FBECDBF8E010F5F1F4F8CE0F80111928F
:102580008A95E9F7F12C6F2DC8010E942812F39467
:10259000F6E0FF12F8CF4CE050E0B80181EC92E099
:1025A0000E94D226FF24F394009709F4F12C892B82
:1025B00041F08CE0F801A1ECB2E001900D928A9517
:1025C000E1F72F2D46E06DEC72E081EC92E00E9485
:1025D000F9120E9459038F2D2C960FB6F894DEBF86
:1025E0000FBECDBFDF91CF911F910F91FF90089546
:1025F0000895FF920F931F93CF93DF93F82E092F27
:10260000162FD72FC42F222349F081E080937E021A
:102610000E940D1F90937D0280937C0280917E0228
:102620008823A1F080917C0290917D020E94251F59
:10263000059760F0EF2DF02FA12FBD2F90E080E0E7
:10264000D0E08C179D0744F010927E02DF91CF916D
:102650001F910F91FF900895219131912D933D93FA
:102660000196EFCF0E94FE200E94F40E0C940A21E6
:102670000E940E210E94FC0E0C9428210E94961E9E
:102680000E94E5200E94E00E0E9432130E9438133F
:102690000E94F00EFBCFEF92FF920F931F93CF9308
:1026A000DF93EB01E82FD11110C0442321F0F0E0BB
:1026B000ED5BFC4FE4916E2F7E2F8E2FDF91CF913B
:1026C0001F910F91FF90EF9008950D2F10E0282F8C
:1026D00030E0442329F02D5B3C4FF901249130E098
:1026E000F6E0CF9FC0011124EFEFF0E0BF010E94A0
:1026F0003826AB018C2F90E0880F991FA5E5A49F89
:10270000B001A59F700D1124861B970B982F990F70
:10271000980FBF01601B710B629FD001639FB00DCA
:10272000729FB00D11248B2F9D9FB0011124672F34
:102730007727EF01C61BD70BBE01629FE001639FA5
:10274000D00D729FD00D11247F01E91AF108E09E8F
:10275000B001E19E700DF09E700D1124672F772758
:10276000E61BF70BE29F8001E39F100DF29F100D17
:102770001124E12F722F4230510599F048F4411590
:10278000510569F04130510581F0EB2F8D2F07C0C5
:102790004430510569F080F046305105B1F76E2F95
:1027A0008DCFE22F7B2F812FFACFE22F7D2FF7CF16
:1027B000EB2F822F712FF3CF7B2F822FED2FEFCFB7
:1027C00041E00C944B1308950C94E013CF93DF93E6
:1027D000762FE901682F842F0E94E41379836883A0
:1027E0008A83DF91CF9108958091D902982F9E7F9F
:1027F00029F4817082608093D90208958A34E8F3C5
:1028000081708864F8CF88E090E00C94E726CF923E
:10281000DF92EF92FF926B017C010E94F413B701EB
:10282000A60188E090E0FF90EF90DF90CF900C94AD
:102830000527E9EDF2E083E0808311828FEF828348
:102840008383148260817181828193810C94071447
:102850008091D90280FF02C08695089580E0089596
:102860009091DD02933018F49F5F9093DD028823EE
:1028700051F06091D9027091DA028091DB0290915F
:10288000DC020C940714089581E00C9430149091AC
:10289000DD02992319F091509093DD02882351F0C5
:1028A0006091D9027091DA028091DB029091DC0292
:1028B0000C940714089581E00C94471470E00C9474
:1028C000731A609108018091D90280FF0AC080913B
:1028D000070123E0829FC001112482529D4F0C9476
:1028E0005E148091090190910A0123E0829FF0011A
:1028F0001124E252FD4F891750F711821082128283
:102900008F5F3396F8CF9091D90290FF14C09091C9
:10291000090120910A0133E0939FF0011124E25252
:10292000FD4F921710F00C946114818360834283F1
:102930009F5F3396F6CF0895CF93DF9300D00F9229
:10294000CDB7DEB79091D90290FF0AC09E012F5FEC
:102950003F4F0E94E6134B8169818A810E94831454
:102960000F900F900F90DF91CF910895CF93DF9349
:10297000EC01EC81F0E0E25CFD4F4491E9EDF2E026
:10298000628181810E949C148C818F5F8C83DF9196
:10299000CF910895CF93DF93EC01E9EDF2E043810D
:1029A00062818C810E949C148C818F5F8C83DF916B
:1029B000CF9108950F931F93CF93DF9300D00F9281
:1029C000CDB7DEB78C0180917F0281110AC09E01D4
:1029D0002F5F3F4F4FEF6FEF0E94E6138A81809386
:1029E0007F02F8016481613069F080917F0240E0EC
:1029F000662361F040E0623011F440917F0280E094
:102A000060E004C060917F0240E080E00E94831497
:102A1000F801848190E0019663E070E00E944C260A
:102A200084830F900F900F90DF91CF911F910F91A2
:102A30000895AF92BF92CF92DF92EF92FF920F93E1
:102A40001F93CF93DF9300D00F92CDB7DEB7182F2F
:102A5000F62E042FE22E9091D90290FF29C0E92F83
:102A6000E695AE2FB0E0A456BE4F8C9180938B02BA
:102A70009E7F923059F59E012F5F3F4F812F0E941C
:102A8000E6134B8169818A810E9483141093DA02D4
:102A9000F092DB020093DC02EE2051F06091D9024B
:102AA0007091DA028091DB029091DC020E9407149F
:102AB0000F900F900F90DF91CF911F910F91FF908A
:102AC000EF90DF90CF90BF90AF900895823019F4CF
:102AD0000091DC02DBCF863019F41091DA02D6CFF8
:102AE0008930D9F3893191F6E9518E2F8170D82E32
:102AF000E695F0E0E25CFC4FA590B490C12CBB24BD
:102B000060910B01C61618F00E946114BFCF2C2DE6
:102B100030E0A29EC001A39E900DB29E900D1124A4
:102B200070E00E943826812FD11013C0860F40918B
:102B30000901420F532F511D9A01220F331F240FF9
:102B4000351F22523D4F402F6F2D0E94E613C39434
:102B5000D7CF861BECCFE9EDF2E09181282F43819E
:102B6000628188E0890F0C94191581E00C94AB15F3
:102B7000E9EDF2E09181282F4381628188EF890F8E
:102B80000C94191581E00C94B815E9EDF2E062811E
:102B900028E0620F08F46FEF282F438181810C94A5
:102BA000191581E00C94C515E9EDF2E0628128E089
:102BB000621B08F460E0282F438181810C94191571
:102BC00081E00C94D415E9EDF2E0438128E0420F56
:102BD00008F44FEF282F628181810C94191581E050
:102BE0000C94E315E9EDF2E0438128E0421B08F480
:102BF00040E0282F628181810C94191581E00C94AA
:102C0000F21520E00C941915EF92FF921F93CF93C9
:102C1000DF93EC0110E0EE24EA94F12C60910B01BB
:102C2000161770F00E9461149A818C8190FF27C062
:102C30008F5F8C83DF91CF911F91FF90EF9008956C
:102C400020910901422F410F5527551FCA019A01B2
:102C5000220F331F280F391F22523D4F70E0C7014A
:102C60000E944C26962F8C814091DC026091DB0201
:102C7000199F800D11240E94E6131F5FCFCF815052
:102C8000D8CFAF92BF92CF92DF92EF92FF920F9385
:102C90001F93CF93DF93FC0182810FEF80FF01E050
:102CA00010E04EE0A42E80910B011817C8F00E948E
:102CB000611480918102013009F055C0811102C078
:102CC00080910B01815080938102DF91CF911F9100
:102CD0000F91FF90EF90DF90CF90BF90AF9008954D
:102CE000C0910901C12ED12CCC0DDD2DD11DCE01FD
:102CF000880F991FC80FD91FC252DD4F1982188241
:102D00001A8234E0E32EF12CB12C809181028B0DDC
:102D10008F301CF16A2D0E942A26892F082E000C64
:102D2000990BC816D90691F48091DC028E9DA00102
:102D30008F9D500D112455954795559547959E01AA
:102D40006091DB028091DA020E94E613B00EF1E09E
:102D5000EF1AF108D1F61F5FA6CF87FFDFCF909162
:102D60000B01890FDBCF90E0019660910B0170E0C1
:102D70000E944C26A8CF0F931F93CF93DF9380918F
:102D8000090190910A0123E0829FF0011124E2528F
:102D9000FD4F891740F1C0E0D3E060910B01C617E9
:102DA00040F10E9461142091050180918002820F00
:102DB0008093800290910601920F9093060119165C
:102DC00054F4082E000C990B40910B014150550B07
:102DD000841795071CF0219520930501DF91CF9171
:102DE0001F910F9108951182108212828F5F339686
:102DF000D0CF0C2F10E070E0C8010E944C2620912B
:102E00000901820F482F50E020918002022E000C11
:102E1000330B02171307BCF020910601022E000CA1
:102E2000330B201731077CF08D9F90011124225223
:102E30003D4F4091DC026091DB028091DA020E94FA
:102E4000E613CF5FAACFFA01EE0FFF1FE40FF51FC5
:102E5000E252FD4F118210821282F3CF8F929F9225
:102E6000AF92BF92CF92DF92EF92FF920F931F9398
:102E7000CF93DF93EC014C81042F10E09801D8012F
:102E80000E9490269B01AC010E94A6264B015C018A
:102E9000E0E2F0E0E01BF10BA5E5B0E0AC019B0146
:102EA0000E94A6266B017C019F01DF010E948826FB
:102EB0009B01AC010E94B1269B01AC01280D391D7C
:102EC0004A1D5B1DC701B6010E946026F22E822FAB
:102ED00090E039E23F1560F143E0249F9001112416
:102EE00035952795122F109500E085E5E82EEF180F
:102EF00080910B01081758F10E9461149C8181E0B8
:102F0000992319F0903219F48FEF80930401809186
:102F10000401890F8C83DF91CF911F910F91FF9056
:102F2000EF90DF90CF90BF90AF909F908F900895DB
:102F300025E530E0B901681B790B9B01220F331F97
:102F4000260F371F37FFCCCF2F5F3F4FC9CF8E2DB6
:102F500001FD8F2D20910901622F600F7727771FC8
:102F60009B01220F331F260F371F22523D4F412F47
:102F70006091DB020E94E6130F5FBACF0F931F939D
:102F8000CF93DF93EC0110E000E090910B019017DC
:102F9000110609F06CF40E9461148C8190E0019696
:102FA000817099278C83DF91CF911F910F910895A4
:102FB00020910901A801420F511D9A01220F331FD0
:102FC000240F351F22523D4F4C816091DB028091CE
:102FD000DA0296959017110651F04CF0442349F00F
:102FE0004091DC020E94E6130F5F1F4FCECF4423B7
:102FF000B9F340E0F7CFE9EDF2E080818E7F808386
:1030000060817181828193810E94071410928C02E9
:103010002FEF80E792E0215080409040E1F700C020
:1030200000000C946114E9EDF2E080818E7F8083D2
:1030300010928C022FEF80E792E021508040904068
:10304000E1F700C000000C94611410928C02809192
:10305000890281110AC081E0809389028091D9029E
:103060008170809388020C94131808956091D9029E
:10307000669570E04BE050E08CE091E00E94C52640
:10308000892B19F481E080938C020E940D1F90938C
:1030900083028093820208959091D90290FF35C0F7
:1030A0009170811128C092609093D902662351F0EB
:1030B0006091D9027091DA028091DB029091DC027A
:1030C0000E9407146091D902669570E04BE050E0D1
:1030D0008CE091E00E94C526892BA1F010928C0211
:1030E00081E0809385024091DC026091DB02809157
:1030F000DA020C940116853210F09864D5CF880F4F
:10310000982BD2CF0E943618EBCF0895682F90915C
:10311000D902969581E0890F853208F081E00C9400
:103120004C1881E00C948618682F9091D9029695DE
:103130008FEF890F09F484E20C944C1881E00C9411
:10314000941861E00C944C18E9EDF2E08081816004
:10315000808386950C94A1188091D90280FD0C94EF
:10316000FB170C94A41860E00C944C1880918A0210
:1031700081112EC00E94130E811104C00E94B80E4E
:103180000E9419140E9403146093D9027093DA020A
:103190008093DB029093DC026E7F61F40E9419142D
:1031A0000E9403146093D9027093DA028093DB02C9
:1031B0009093DC020E94F41310928C028091D90249
:1031C00080FF03C086950E94B31881E080938A0235
:1031D0000895E9EDF2E080818160808386950C940A
:1031E000B318109289028091880281110E94E91817
:1031F0000C9436180F931F93CF93DF9380918C021A
:10320000882309F486C080918B02E091D902E6956B
:10321000E81BE0938402823091F5F0E0E65CFD4F1C
:10322000E491CE2FD0E006EB14E180918502882353
:1032300061F0109285020E940D1F9093830280938B
:10324000820210928702109286020E940D1FE09166
:103250008202F09183028E1B9F0B8F3F9F4708F0E5
:1032600058C0EC0FFD1FF0938302E093820282E8C6
:1032700092E0F801DF91CF911F910F910994863070
:1032800049F4F0E0E95CFD4FE491CE2FD0E00AEC88
:1032900014E1CBCF893051F4E695F0E0EC5CFD4FC2
:1032A000E491CE2FD0E004E016E1BFCF8F3051F48F
:1032B000E695F0E0EF5CFD4FE491CE2FD0E001E425
:1032C00016E1B3CF853149F4F0E0E25DFD4FE491C2
:1032D000CE2FD0E00BEB16E1A8CFC8E2D0E00EE293
:1032E00017E1883109F4A1CF833239F4ECE2F2E03E
:1032F000C591D4910AED14E198CFC4EFD1E00EEB63
:1033000017E1843209F491CFC0EDD7E003EE13E169
:103310008CCFDF91CF911F910F910895FA01811108
:1033200001C0FB010994CF93DF93C82FD62F0E94D1
:1033300028148C1740F00E9428148D1720F4DF9178
:10334000CF910C9491188C2FDF91CF910C94A118F0
:103350001F93CF93DF93EC01FB011281112309F43A
:10336000C0C00E94320D8272CD3CFCE5DF0709F43B
:103370009CC008F044C0C73CECE5DE0709F481C0FE
:10338000F0F4C43C9CE5D90709F471C048F4C33C8F
:10339000DC4509F469C0812FDF91CF911F91089519
:1033A000C53C9CE5D90709F467C042EC55E165EBE3
:1033B00075E1C63CDC4579F70E948E1953C0CA3CC2
:1033C000FCE5DF0709F467C068F4C83CECE5DE07FC
:1033D00009F45CC041ED55E160EE75E1C93CDC45A6
:1033E00059F3D9CFCB3C9CE5D90709F459C04BE53B
:1033F00054E164E474E1CC3CDC45F1F2CCCFC23D55
:10340000FCE5DF0709F462C098F4CF3C9CE5D907DE
:1034100009F454C008F44EC0C03DFCE5DF0709F4D0
:1034200052C0C13DDC4509F0B6CF6EE089E048C02E
:10343000C53D9CE5D90709F44FC058F4C33DFCE5F0
:10344000DF0709F446C0C43DDC4509F0A4CF88E19C
:1034500032C0C63D9CE5D90709F441C0CE35DD45F3
:1034600009F099CF10E097CF0E94AC18FBCF4EE93E
:1034700058E161E978E1A0CF41E958E16EE978E1EE
:103480009BCF45EB55E162EC75E196CF40EE55E1FF
:1034900061ED75E191CF4EEF55E16FEE75E18CCFA7
:1034A0004FEE55E16EEF75E187CF44E454E16BE5F3
:1034B00074E182CF81E00E94A118D4CF65E082E060
:1034C0000E949319CFCF68E086E0FACF64E18FE0E5
:1034D000F7CF67E185E1F4CF62E289E1F1CF83E2E2
:1034E000EACF11E058CF279A45B14F7755B15068D0
:1034F000EFB7F8949B01220F331F260F371F280FB9
:10350000391F2817390741F4EFBF8FE594E0019781
:10351000F1F700C000000895DC016D91CD0178E065
:1035200055B9000000C067FF45B9660F000000C034
:1035300000C000C045B900C07A9591F7E2CFCF93A3
:10354000DF93EC01FB018281882309F420C1C430A0
:10355000FDE5DF07C8F5CB3F9CE5D90730F49E01B8
:1035600022503C452431310598F50E94260E909357
:10357000C0028093BF02C031FCE5DF0709F4E0C060
:1035800008F061C0C8309CE5D90709F4CBC088F5C4
:10359000C430FCE5DF0709F4B3C0E8F4C2309CE5B1
:1035A000D90709F4A7C08091BF028260C330DC450F
:1035B00009F4A3C08091BF029091C0020E94340E12
:1035C0000E94AD0780E004C0C236EDE5DE0769F277
:1035D000DF91CF9108958091BF028061C630FCE5F4
:1035E000DF0709F48AC008F48FC08091BF028062AF
:1035F00084C08091BF028D7FCC309CE5D90709F44F
:103600007CC070F48091BF028C60CA30FCE5DF079B
:1036100009F473C008F48AC08091BF028E7F6DC028
:103620008091BF02877FCE309CE5D90709F465C041
:103630008091BF028B7FCF30DC4508F45EC0809163
:10364000BF028F7E5AC0CD3FFCE5DF0709F474C08E
:1036500040F5C4319CE5D90709F48AC058F4C23159
:10366000FCE5DF0709F474C008F46EC08091BF0266
:10367000837F43C0CB3F9CE5D90709F449C008F0DC
:103680004DC0C531DC4509F095CF8091BF0282FB6A
:10369000992790F921E0922790FB82F990FB83F91A
:1036A0002CC0C1308DE5D80709F458C088F480914A
:1036B000C0028360CF3FECE5DE0769F18091C00274
:1036C0008D7FC115DD4538F18091C0028C7F23C00C
:1036D000C3308DE5D80709F458C008F452C0C2368B
:1036E000DD4509F067CF9091BF02892F8F7E94FF4F
:1036F000806103C08091BF0281608093BF025ACF76
:103700008091BF028460F9CF8091BF028860F5CFBD
:103710008091C00281608093C0024CCF8091C00232
:103720008260F9CF8091BF028064E7CF0E94AD072D
:103730008091BF028068E1CF8091C0028E7FEBCF85
:103740008091BF028F7DD9CF8091BF028F7BD5CF73
:103750000E94AD078091BF028F77CFCF8091C002CA
:10376000982F909591708E7F892B90FB81F9D3CF04
:103770000E94AD079091BF02892F97FB87F980586F
:10378000BCCF81E00E94BA0E15CF80E0FBCF81E074
:103790001FCF0F931F9341E050E060E070E08A017B
:1037A0009B0104C0000F111F221F331F8A95D2F7FF
:1037B000C901B8010E9406081F910F910C94AD0732
:1037C000EBEFE80FEF3308F05AC0F0E0E95BF84D9B
:1037D0000C9482260E94B80E81E0089580917B02AD
:1037E000807F80937B0281E080938D0208950E9408
:1037F0006203F2CF90917B02892F8E7F90FF8160D0
:1038000080937B0280FDE8CF817F80937B02E4CFB1
:1038100090917B02892F8D7F91FF826080937B0244
:1038200081FFDACF80917B028160EFCF90917B02A4
:10383000892F8B7F92FF846080937B0282FDF2CF81
:10384000CBCF90917B02892F877F93FF88608093F5
:103850007B0283FDE7CFC0CF0E94AD079091BF02EE
:10386000892F97FB87F980588093BF02B5CF80E0FE
:103870000E94C91BB1CF8953FBCF8D51F9CF80E096
:10388000089580E008950C94411CCF93C82F809137
:103890008D02882331F0813099F010928D0280E002
:1038A0000DC00E94320D8232D1F78C2F0E94411C34
:1038B000811116C08C2F0E94E01B8170CF9108955A
:1038C0000E94320D823289F38C2F0E94431C811199
:1038D00005C0C43171F038F4CB3079F781E0EDCF19
:1038E00081E090E0EACFC93221F0C833B9F380E03B
:1038F000E4CF10928D02FBCFCF93DF93EB018631A3
:103900009C4511F50E94320D9A81992399F08A7A8B
:1039100091E009F490E090938E02811109C089E250
:103920000E940D0D0E94820D80E0DF91CF910895DD
:1039300085E3F6CF80918E02811104C089E20E9456
:10394000140DF0CF85E3FBCF81E0EFCF0F931F93F2
:10395000CF93DF93C42FD22FFC0182818823C9F03B
:10396000409391020E940D1F9093900280938F02CA
:1039700080E28C0F883008F050C0C77081E001C031
:10398000880FCA95EAF7DF91CF911F910F910C94A0
:10399000230510919102141335C080918F029091EC
:1039A00090020E94251F883C910560F5C0E2CD0F72
:1039B0001D17B9F080E2810F883040F4177081E064
:1039C00001C0880F1A95EAF70E942A05C83048F40A
:1039D00081E09D2F977001C0880F9A95EAF70E94A9
:1039E0002305802F0E941B05C830B8F4D77081E0F2
:1039F00001C0880FDA95EAF7DF91CF911F910F91FF
:103A00000C942A0580E28C0F883038F4C77081E06E
:103A100001C0880FCA95EAF7EFCFDF91CF911F91D0
:103A20000F9108950F939C01CB01243F4CE534077F
:103A300059F1A8F4293DFCE53F0701F12A3D4CE589
:103A40003407D1F1283D3C4591F406E221EE41EEE8
:103A500068ED7CE50E94A61C80E00F910895263F4A
:103A6000FCE53F07E9F0B0F0273F3C45F9F0FC01E9
:103A70008281882339F110929102EFCF07E225EE7F
:103A800045EE69ED7CE5E6CF06E221EE40EE64EF1F
:103A90007CE5E0CF07E225EE44EE65EF7CE5DACF8A
:103AA00006E221EE42EE66EF7CE5D4CF07E225EE9A
:103AB00046EE67EF7CE5CECF08E221E045EE6AED09
:103AC0007CE5C8CF81E0C9CF9093C3018093C20148
:103AD000089590939702809396020895E09196023C
:103AE000F0919702309721F00190F081E02D099438
:103AF00080E00895E0919602F0919702309799F056
:103B000020912301222359F02091BF0227FF07C0F3
:103B1000DC012C9111962C93119726E02C930280B6
:103B2000F381E02D0994089520919402309195023B
:103B30002817390771F09093950280939402E091D1
:103B40009602F0919702309721F00680F781E02DE0
:103B50000994089520919202309193022817390711
:103B600071F09093930280939202E0919602F0910B
:103B70009702309721F00084F185E02D0994089593
:103B8000FC01329680912301882321F08091BF02AD
:103B90009EE187FF96E080E0915008F4089521911E
:103BA0002223D1F38F5FF8CF662301F12091230107
:103BB0002223F1F02091BF0227FF1AC0462F46951D
:103BC000469546954E3190F4677021E030E002C092
:103BD000220F331F6A95E2F7840F911DFC01828149
:103BE00090E02823392381E0232B69F480E00895B5
:103BF000FC01329608962191261721F0E817F90763
:103C0000D1F7F4CF81E008959C01FC0132969FEF3B
:103C100080E04191461751F09F3F19F4411101C0D6
:103C2000982F8F5F8630A9F79F3F09F40895290FD9
:103C3000311D97FD3A95F90162830895FC01329692
:103C400008962191261303C0DF0111971C92E817F3
:103C5000F907B9F70895E62FE695E695E695EE3172
:103C600068F4E80FF92FF11D677021E030E001C022
:103C7000220F6A95EAF78281822B82830895E62FCC
:103C8000E695E695E695EE3170F4E80FF92FF11D13
:103C9000677021E030E001C0220F6A95EAF72095B5
:103CA000828128232283089520912301222329F051
:103CB0002091BF0227FD0C942B1E0C94041E209112
:103CC0002301222329F02091BF0227FD0C943F1EDF
:103CD0000C941E1EFC01329680912301882351F022
:103CE0008091BF0287FF06C08EE1DF011D928A9599
:103CF000E9F7089586E0F9CF08950C947C1E8111B0
:103D000005C081E0809398020C947D1E82E0FACF7A
:103D100083E0809398020C947D1E0C947F1E81E0BA
:103D2000809398020C947D1E0C948F1E08958091B0
:103D30001003843031F10E945B031092990288E1F4
:103D400090E020E40FB6F894A895809360000FBE31
:103D50002093600083B7817F846083BF83B78160D5
:103D600083BF7894889583B78E7F83BF0FB6F8940E
:103D7000A895809160008861809360001092600037
:103D80000FBE089508950895CF930E94C21E0E9409
:103D9000AD120E94C31EC0E08C2F0E94E411892B3B
:103DA00031F4CF5FC630C1F780E0CF91089581E054
:103DB000FCCF0E94AD070C94CB031F921FB61F923D
:103DC00011248F939F93AF93BF9380919902811198
:103DD00013C08091080390910903A0910A03B09148
:103DE0000B034196A11DB11D809308039093090315
:103DF000A0930A03B0930B03BF91AF919F918F9152
:103E00001F901FBE1F90189582E084BD93E095BD62
:103E10009AEF97BD80936E0008952FB7F894809124
:103E2000080390910903A0910A03B0910B032FBFDF
:103E300008952FB7F8946091080370910903809159
:103E40000A0390910B032FBF08959C014FB7F8947C
:103E50008091080390910903A0910A03B0910B038C
:103E60004FBF821B930B089578941F921FB61F9229
:103E700011248F939F93AF93BF93809108039091E8
:103E80000903A0910A03B0910B030196A11DB11D76
:103E90008093080390930903A0930A03B0930B0344
:103EA000BF91AF919F918F911F901FBE1F9018954A
:103EB00081E08093E00080E28093D8001092C900F6
:103EC0008FE19EE40197F1F700C0000087E090EBDE
:103ED000DC018093190390931A03A0931B03B09302
:103EE0001C0388E19CE00FB6F894A89580936000CD
:103EF0000FBE90936000FFCF8091BD02089508959A
:103F0000CF93DF93EC01809123018823B1F180915D
:103F1000BF0287FF32C060E282E08093E9008FEF4A
:103F20009091E800815095FD06C095ED9A95F1F7C6
:103F300000008111F5CF8091E80085FF1BC08091C2
:103F4000230170E050E040E0811104C050E040E007
:103F500068E070E0CE010E9499218091E8008E77A0
:103F60008093E80080E2FE01ADE9B2E001900D929D
:103F70008A95E1F7DF91CF91089568E081E0CDCF98
:103F800080939A0270939C0260939B02809110032D
:103F9000843001F582E08093E9008FEF9091E80092
:103FA000815095FD06C095ED9A95F1F700008111BD
:103FB000F5CF8091E80085FF0DC050E040E063E060
:103FC00070E08AE992E00E9499218091E8008E7762
:103FD0008093E8000895BC0184E00C94C01FBC01EC
:103FE00083E00C94C01F089580910F03811109C0D4
:103FF0000E9429230E9486238091E200846080939E
:10400000E200089510920F0308950C948F1E6091A2
:104010000C0381E0611101C080E00C94881E909136
:10402000100381E0943009F080E060910C030C945F
:104030008D1E42E061EC81E00E94A52242E261EC2B
:1040400082E00E94A5229091100381E0943009F053
:1040500080E060910C030C947F1E809112038330EA
:1040600009F460C030F48130C9F1823009F49CC099
:1040700008958A3009F488C08B3009F46EC0893005
:1040800009F04FC080911103813209F04AC080913C
:10409000150390911603029708F043C08091E80041
:1040A000877F8093E8008091E80082FF36C090917E
:1040B000F3008091F200029731F48091F100813099
:1040C00011F0863021F48091F1008093BD0280913F
:1040D000E8008B778093E8000C94D922809111033B
:1040E000813AF9F48091E800877F8093E80080911D
:1040F000150390911603892B61F460E28DE992E03B
:1041000070E00E94E8218091E8008B778093E800BE
:10411000089560E090E080E0F3CF8091100381117A
:10412000C2CF089580911103813AD9F78091150388
:1041300090911603892BA9F78091E800877F8093DF
:10414000E8008091E80080FFFCCF809123018093FC
:10415000F1008091E8008E77BDCF8091110381320C
:1041600001F78091150390911603892BD1F6809168
:10417000E800877F8093E8000E94D9228091130392
:10418000809323010C94AD0780911103813249F68D
:104190008091E800877F8093E8000E94D922809177
:1041A00014038093BE02089580911103813A09F0AF
:1041B000B8CF8091E800877F8093E8008091E80085
:1041C00080FFFCCF8091BE02C2CF84B7877F84BFBF
:1041D0000FB6F894A8958091600088618093600084
:1041E000109260000FBE80E890E00FB6F8948093C4
:1041F0006100909361000FBE0C94941E0E942923CD
:104200000E948623E2EEF0E08081846080837894CF
:104210000C940F2687E191E00C94691D80911003A6
:104220008530A9F480911003853011F00C94D91ECB
:104230000E94971E80910E038823A1F30E94C41E42
:10424000882381F30E9483210E94AD07EBCF08955C
:1042500008950C942B21292F33272330310519F190
:1042600068F42130310509F444C02230310509F4E5
:1042700045C090E080E030E020E025C021323105EB
:1042800049F122323105A9F780E490E02FE235E0D0
:1042900061157105C1F08DE690E022EC34E06130EB
:1042A000710589F0E6CF99278130910581F000975B
:1042B00029F00297F1F6E3E4F4E002C0E1E7F4E06C
:1042C000849190E09F01FA01318320830895E3E611
:1042D000F4E0F6CF89E090E027E834E0611571055D
:1042E00091F389E090E020EA34E06130710559F300
:1042F000C0CF82E190E020EB34E0E5CF8BE390E0AB
:1043000025E734E0E0CF80E189BD82E189BD09B4D1
:1043100000FEFDCF8091D8008F7D8093D8008091E2
:10432000E00082608093E0008091E00081FDFCCF9E
:104330000895AF92BF92CF92DF92FF920F931F9397
:10434000CF93DF936C01EB018A010E94F822F82ED3
:10435000811123C00115110539F0F8018081918187
:10436000C81BD90BC80ED91EB12CA12C2097A9F0BF
:104370008091E80085FD22C08091E8008E778093CF
:10438000E80001151105A1F0F80180819181A80EC6
:10439000B91EB182A08285E0F82E8F2DDF91CF91DA
:1043A0001F910F91FF90DF90CF90BF90AF90089535
:1043B0000E94F8228823D1F2F82EEFCFF6018191E6
:1043C0006F018093F1002197FFEFAF1ABF0ACECFA4
:1043D000FC01809117039091180386179707A0F0AE
:1043E0006115710529F49091E8009E779093E8009B
:1043F00090E06115710551F4911108C08091E800B9
:1044000082FF34C080E00895BC01F2CF8091100398
:104410008823C1F18530C1F18091E80083FD30C06F
:104420008091E80082FDEACF8091E80080FFE1CF33
:104430008091F3002091F200382F6115710519F079
:104440002830310558F091E02830310509F090E02E
:104450002091E8002E772093E800CBCF81918093C4
:10446000F100615071092F5F3F4FE7CF809110033A
:10447000882341F0853041F08091E80083FFBECF72
:1044800081E0089582E0089583E00895FC01809121
:1044900017039091180386179707A0F0611571050F
:1044A00029F48091E8008E778093E80090E0611510
:1044B000710551F4911108C08091E80082FF35C068
:1044C00080E00895BC01F2CF809110038823C9F1E8
:1044D0008530C9F18091E80083FD31C08091E8000A
:1044E00082FDEACF8091E80080FFE1CF8091F30068
:1044F0002091F200382F6115710519F0283031052F
:1045000058F091E02830310509F090E08091E80002
:104510008E778093E800CBCF84918093F100319621
:10452000615071092F5F3F4FE6CF809110038823C0
:1045300041F0853041F08091E80083FFBDCF81E0FC
:10454000089582E0089583E00895982F973028F029
:104550008F708093E90081E008959093E900242F03
:10456000762F50E0981731F07091EC002091ED001B
:104570005091F00021FD02C09F5FE8CF3091EB0029
:104580003E7F3093EB003091ED003D7F3093ED00A6
:104590003091EB0031603093EB007093EC0020938E
:1045A000ED005093F0002091EE0027FDE5CF80E074
:1045B00008958091110387FF13C08091E80082FF66
:1045C00006C08091E8008B778093E80004C080915A
:1045D00010038111F2CF0895809110038823D9F33D
:1045E0008091E80080FFF8CF8091E8008E77ECCFD3
:1045F0002091E4003091E50095E6A9012091EC00BE
:10460000822F817020FF06C08091E80080FF06C0E5
:1046100080E008952091E80022FD1AC080911003E7
:10462000882389F0853089F08091EB0085FD0FC0EB
:104630002091E4003091E50042175307F9F29150C0
:10464000E1F684E0089582E0089583E0089581E032
:1046500008950E9497230E949F23E0EEF0E080815E
:1046600081608083E8EDF0E080818F77808319BCE2
:10467000A7EDB0E08C918E7F8C9380818F7E8083BC
:1046800010920F0308950F931F93CF93DF930E940F
:1046900097230E949F23C8EDD0E088818F7788837D
:1046A00088818068888388818F7D888319BC109277
:1046B000100310920C0310920E0310920D0300EEE3
:1046C00010E0F80180818B7F8083888181608883FE
:1046D00042E060E080E00E94A522E1EEF0E080810F
:1046E0008E7F8083E2EEF0E0808181608083808134
:1046F00088608083F80180818E7F808388818061DB
:104700008883DF91CF911F910F910895E8EDF0E03C
:1047100080818F7E8083E7EDF0E0808181608083FF
:1047200084E082BF81E080930F030C944323E8ED83
:10473000F0E080818E7F80831092E20008951092D5
:10474000DA001092E10008951F920F920FB60F92B7
:1047500011242F933F934F935F936F937F938F9386
:104760009F93AF93BF93EF93FF938091E10082FFFC
:104770000BC08091E20082FF07C08091E1008B7F37
:104780008093E1000E940E268091DA0080FF19C01C
:104790008091D80080FF15C08091DA008E7F8093D1
:1047A000DA008091D90080FF96C080E189BD82E166
:1047B00089BD09B400FEFDCF81E0809310030E9403
:1047C000F41F8091E10080FF19C08091E20080FF1A
:1047D00015C08091E2008E7F8093E2008091E2001C
:1047E00080618093E2008091D80080628093D8003D
:1047F00019BC85E0809310030E9407208091E1009E
:1048000084FF2BC08091E20084FF27C080E189BD36
:1048100082E189BD89B5982F917080FFFBCF80918F
:10482000D8008F7D8093D8008091E1008F7E8093A7
:10483000E1008091E2008F7E8093E2008091E200AF
:1048400081608093E20080910C03882309F449C0C1
:1048500084E0809310030E940F208091E10083FF89
:1048600029C08091E20083FF25C08091E100877F0D
:104870008093E10082E08093100310920C038091FA
:10488000E1008E7F8093E1008091E2008E7F809333
:10489000E2008091E20080618093E20042E060E00B
:1048A00080E00E94A5228091F00088608093F00053
:1048B0000E940520FF91EF91BF91AF919F918F9141
:1048C0007F916F915F914F913F912F910F900FBE0C
:1048D0000F901F90189519BC109210030E9402208F
:1048E00070CF8091E30087FD93E090931003B3CFE6
:1048F0001F920F920FB60F9211242F933F934F9355
:104900005F936F937F938F939F93AF93BF93CF9357
:10491000DF93EF93FF93D091E900DF708091EC007B
:10492000C82FC17080FDC0E81092E9008091F000AE
:10493000877F8093F00078940E94BC241092E90055
:104940008091F00088608093F000CD2BCF70C093F1
:10495000E900FF91EF91DF91CF91BF91AF919F91CE
:104960008F917F916F915F914F913F912F910F9018
:104970000FBE0F901F9018951F93CF93DF93CDB765
:10498000DEB7AA970FB6F894DEBF0FBECDBF81E1A8
:1049900093E02091F100FC012193CF01F3E08931F4
:1049A0009F07B9F70E942D208091E80083FF1EC168
:1049B00080911103909112039A3008F017C1E92FEA
:1049C000F0E0EA57F84D0C948226803899F082384E
:1049D00009F00CC1809115038F70873008F006C173
:1049E0008093E9008091EB0085FB882780F9109285
:1049F000E90006C080910D0390910E039111826031
:104A00009091E800977F9093E8008093F1001092D6
:104A1000F1008091E8008E77E5C0882309F4D3C0C7
:104A2000823009F0E3C0809113038111D6C08091D8
:104A300015038F702FEF280F263008F0D7C0809312
:104A4000E9002091EB0020FFC8C0933031F4809141
:104A5000EB0080628093EB00C0C09091EB0090610E
:104A60009093EB0021E030E001C0220F8A95EAF735
:104A70002093EA001092EA008091EB008860EACF70
:104A80008111B4C0109113031F778091E3008078E7
:104A9000812B8093E3008091E800877F8093E8007A
:104AA0000E94D9228091E80080FFFCCF8091E30032
:104AB00080688093E30082E0111183E0809310030B
:104AC00095C08058823008F091C080911303909176
:104AD00014038C3D23E09207A1F583E08A838AE2E8
:104AE00089834FB7F894DE01139620E03EE051E24F
:104AF000E32FF0E050935700E49120FF03C0E295CC
:104B0000EF703F5FEF708E2F90E0EA30C0F0C796F5
:104B10008D939D932F5F243159F74FBF8091E8000B
:104B2000877F8093E8006AE270E0CE0101960E94E0
:104B3000E8218091E8008B778093E80057C0C09609
:104B4000E7CF6091150370911603AE014F5F5F4F81
:104B50000E942921BC01892B09F448C09091E800EA
:104B6000977F9093E80089819A810E944622E1CF45
:104B70008038E1F58091E800877F8093E80080919C
:104B80000C038093F10045CF811130C09091130345
:104B9000923060F58091E800877F8093E8009093E1
:104BA0000C030E94D92280910C03882311F084E029
:104BB00005C08091E30087FDFACF81E08093100368
:104BC0000E94192013C080911303813079F481E091
:104BD000933009F080E080930E031092E9008091F9
:104BE000E800877F8093E8000E94D9228091E80046
:104BF00083FF0AC08091E800877F8093E80080915E
:104C0000EB0080628093EB00AA960FB6F894DEBFAB
:104C10000FBECDBFDF91CF911F9108950895CF931F
:104C2000809110038823A1F0C091E900CF7090918A
:104C3000EC00892F817090FD80E8C82B1092E9006C
:104C40008091E80083FD0E94BC24CF70C093E900EE
:104C5000CF91089587FB082E062687FD819567FD75
:104C600061950E94B9260EF4919507FC81950895EF
:104C7000AA1BBB1B51E107C0AA1FBB1FA617B70782
:104C800010F0A61BB70B881F991F5A95A9F780959E
:104C90009095BC01CD01089597FB072E16F4009462
:104CA00007D077FD09D00E94382607FC05D03EF4D6
:104CB000909581959F4F0895709561957F4F0895C8
:104CC000A1E21A2EAA1BBB1BFD010DC0AA1FBB1F10
:104CD000EE1FFF1FA217B307E407F50720F0A21B82
:104CE000B30BE40BF50B661F771F881F991F1A94EF
:104CF00069F760957095809590959B01AC01BD0119
:104D0000CF010895EE0FFF1F0590F491E02D099457
:104D10000E949026332312F48A1B9B0B0C94A1262D
:104D2000A29FB001B39FC001A39F700D811D1124EC
:104D3000911DB29F700D811D1124911D08950E9437
:104D40009026B7FF0895821B930B08950E9490262A
:104D5000A59F900DB49F900DA49F800D911D1124CF
:104D60000895B7FF0C94A6260E94A626821B930BDB
:104D70000895991B79E004C0991F961708F0961BB7
:104D8000881F7A95C9F780950895FC0141505040DD
:104D900030F001900616D1F73197CF01089588279A
:104DA00099270895FB01DC0104C08D9101908019C1
:104DB00021F441505040C8F7881B990B0895F99988
:104DC000FECF92BD81BDF89A992780B50895A6E1DE
:104DD000B0E044E050E00C941927A8E1B0E042E0D4
:104DE00050E00C941927262FF999FECF92BD81BD72
:104DF000F89A019700B4021639F01FBA20BD0FB619
:104E0000F894FA9AF99A0FBE08950396272F0E94F4
:104E1000F4260E94F326252F0E94F426242F0C94BA
:104E2000F4260196272F0E94F4260C94F326DC0129
:104E3000CB01FC01F999FECF06C0F2BDE1BDF89AA5
:104E4000319600B40D9241505040B8F70895F8944F
:104E5000FFCF6B056B059C059C052F06CB05CB058D
:104E6000CB054B06D706E606E6063E07CB05CB0587
:104E70004707BC07BC07C507C507C707C507C50760
:104E8000C507BC07BC07CC07C507C507CC07F71B80
:104E9000EE1BFA1BEC1B3F1C3F1CEC1B3F1C3F1C7A
:104EA000161C3F1C211C2C1C3F1C3F1C3F1C3F1C84
:104EB000EC1B3F1C3F1CEC1B3F1C081C3F1C3F1CF9
:104EC0003D1C3D1C3D1C3D1C3D1C3D1C3D1C3D1C1A
:104ED0003D1C371C3F1CF71BEA1B3F1C3F1C3F1CA3
:104EE0003F1C3F1C3F1C3F1C3F1C3F1C3F1C371CF2
:104EF0003F1C3F1CEC1B3F1C3B1C3B1C3B1C3B1C3E
:104F00003B1C3B1C3B1C3B1C3B1C371CE5240D2560
:104F1000F6250D25F62540256125F625B825C4255D
:104F2000C8004302010102000E000E0E01191A1BF7
:104F30001C1D1E1F2021227C1F801FF31FEF1FEB53
:104F40001F7F1F01E200E900EA00B500B600B700CC
:104F5000CD008301CC008A01920194012102230239
:104F600024022502260227022A02B300B4006F00A1
:104F70007000818283E200E900EA00B500B600B764
:104F800000CD008301CC008A01920194012102230B
:104F90000224022502260227022A02B300B4006F6F
:104FA000007000818283F7F6F567663694909192DF
:104FB000939530313233F0F1F49734350001020229
:104FC00002020606060909090909090F0F0F0F0F4A
:104FD0000F1515151819191919191919191919234E
:024FE0002400AB
:00000001FF
